{
  "contractName": "Voting",
  "abi": [
    {
      "inputs": [],
      "payable": false,
      "stateMutability": "nonpayable",
      "type": "constructor"
    },
    {
      "anonymous": false,
      "inputs": [
        {
          "indexed": false,
          "internalType": "uint256",
          "name": "candidateId",
          "type": "uint256"
        }
      ],
      "name": "VoteRecorded",
      "type": "event"
    },
    {
      "constant": false,
      "inputs": [
        {
          "internalType": "uint256",
          "name": "_candidateId",
          "type": "uint256"
        },
        {
          "internalType": "string",
          "name": "_genre",
          "type": "string"
        },
        {
          "internalType": "uint256",
          "name": "_wilaya",
          "type": "uint256"
        },
        {
          "internalType": "uint256",
          "name": "_age",
          "type": "uint256"
        }
      ],
      "name": "vote",
      "outputs": [],
      "payable": false,
      "stateMutability": "nonpayable",
      "type": "function"
    },
    {
      "constant": false,
      "inputs": [
        {
          "internalType": "address",
          "name": "_voter",
          "type": "address"
        }
      ],
      "name": "allowVoter",
      "outputs": [],
      "payable": false,
      "stateMutability": "nonpayable",
      "type": "function"
    },
    {
      "constant": true,
      "inputs": [
        {
          "internalType": "uint256",
          "name": "_candidateId",
          "type": "uint256"
        }
      ],
      "name": "getCandidateDetails",
      "outputs": [
        {
          "internalType": "uint256",
          "name": "",
          "type": "uint256"
        }
      ],
      "payable": false,
      "stateMutability": "view",
      "type": "function"
    },
    {
      "constant": true,
      "inputs": [],
      "name": "getTotalVote",
      "outputs": [
        {
          "internalType": "uint256",
          "name": "",
          "type": "uint256"
        }
      ],
      "payable": false,
      "stateMutability": "view",
      "type": "function"
    },
    {
      "constant": true,
      "inputs": [],
      "name": "getMaleVotes",
      "outputs": [
        {
          "internalType": "uint256",
          "name": "",
          "type": "uint256"
        }
      ],
      "payable": false,
      "stateMutability": "view",
      "type": "function"
    },
    {
      "constant": true,
      "inputs": [],
      "name": "getFemaleVotes",
      "outputs": [
        {
          "internalType": "uint256",
          "name": "",
          "type": "uint256"
        }
      ],
      "payable": false,
      "stateMutability": "view",
      "type": "function"
    },
    {
      "constant": true,
      "inputs": [
        {
          "internalType": "uint256",
          "name": "_wilaya",
          "type": "uint256"
        }
      ],
      "name": "getWilayaVotes",
      "outputs": [
        {
          "internalType": "uint256",
          "name": "",
          "type": "uint256"
        }
      ],
      "payable": false,
      "stateMutability": "view",
      "type": "function"
    },
    {
      "constant": true,
      "inputs": [],
      "name": "getYouthVotes",
      "outputs": [
        {
          "internalType": "uint256",
          "name": "",
          "type": "uint256"
        }
      ],
      "payable": false,
      "stateMutability": "view",
      "type": "function"
    },
    {
      "constant": true,
      "inputs": [],
      "name": "getMiddleAgeVotes",
      "outputs": [
        {
          "internalType": "uint256",
          "name": "",
          "type": "uint256"
        }
      ],
      "payable": false,
      "stateMutability": "view",
      "type": "function"
    },
    {
      "constant": true,
      "inputs": [],
      "name": "getElderlyVotes",
      "outputs": [
        {
          "internalType": "uint256",
          "name": "",
          "type": "uint256"
        }
      ],
      "payable": false,
      "stateMutability": "view",
      "type": "function"
    },
    {
      "constant": true,
      "inputs": [
        {
          "internalType": "address",
          "name": "_sender",
          "type": "address"
        }
      ],
      "name": "getVoterState",
      "outputs": [
        {
          "internalType": "bool",
          "name": "",
          "type": "bool"
        }
      ],
      "payable": false,
      "stateMutability": "view",
      "type": "function"
    }
  ],
  "bytecode": "0x60806040523480156200001157600080fd5b5033600a60006101000a81548173ffffffffffffffffffffffffffffffffffffffff021916908373ffffffffffffffffffffffffffffffffffffffff160217905550620000996040518060400160405280600a81526020017f43616e6469646174204100000000000000000000000000000000000000000000815250620001be60201b60201c565b620000df6040518060400160405280600a81526020017f43616e6469646174204200000000000000000000000000000000000000000000815250620001be60201b60201c565b620001256040518060400160405280600a81526020017f43616e6469646174204300000000000000000000000000000000000000000000815250620001be60201b60201c565b6200016b6040518060400160405280600a81526020017f43616e6469646174204400000000000000000000000000000000000000000000815250620001be60201b60201c565b6000600190505b603b811015620001b757600160009080600181540180825580915050906001820390600052602060002001600090919290919091505550808060010191505062000172565b50620002df565b6008604051806040016040528083815260200160008152509080600181540180825580915050906001820390600052602060002090600202016000909192909190915060008201518160000190805190602001906200021f92919062000230565b506020820151816001015550505050565b828054600181600116156101000203166002900490600052602060002090601f016020900481019282601f106200027357805160ff1916838001178555620002a4565b82800160010185558215620002a4579182015b82811115620002a357825182559160200191906001019062000286565b5b509050620002b39190620002b7565b5090565b620002dc91905b80821115620002d8576000816000905550600101620002be565b5090565b90565b610da180620002ef6000396000f3fe608060405234801561001057600080fd5b50600436106100a95760003560e01c806357b071911161007157806357b07191146101f05780636f422997146102c9578063c500d240146102e7578063ccdabcfe14610305578063cfe922f414610323578063f1c73cc714610341576100a9565b806301b520ad146100ae578063171b11c8146100cc57806327f9fd50146101105780632c9bb5eb1461015257806345a5c08914610194575b600080fd5b6100b661035f565b6040518082815260200191505060405180910390f35b61010e600480360360208110156100e257600080fd5b81019080803573ffffffffffffffffffffffffffffffffffffffff169060200190929190505050610369565b005b61013c6004803603602081101561012657600080fd5b8101908080359060200190929190505050610487565b6040518082815260200191505060405180910390f35b61017e6004803603602081101561016857600080fd5b8101908080359060200190929190505050610529565b6040518082815260200191505060405180910390f35b6101d6600480360360208110156101aa57600080fd5b81019080803573ffffffffffffffffffffffffffffffffffffffff1690602001909291905050506105cb565b604051808215151515815260200191505060405180910390f35b6102c76004803603608081101561020657600080fd5b81019080803590602001909291908035906020019064010000000081111561022d57600080fd5b82018360208201111561023f57600080fd5b8035906020019184600183028401116401000000008311171561026157600080fd5b91908080601f016020809104026020016040519081016040528093929190818152602001838380828437600081840152601f19601f8201169050808301925050505050505091929192908035906020019092919080359060200190929190505050610621565b005b6102d1610d1a565b6040518082815260200191505060405180910390f35b6102ef610d24565b6040518082815260200191505060405180910390f35b61030d610d2d565b6040518082815260200191505060405180910390f35b61032b610d37565b6040518082815260200191505060405180910390f35b610349610d41565b6040518082815260200191505060405180910390f35b6000600554905090565b600a60009054906101000a900473ffffffffffffffffffffffffffffffffffffffff1673ffffffffffffffffffffffffffffffffffffffff163373ffffffffffffffffffffffffffffffffffffffff161461042c576040517f08c379a00000000000000000000000000000000000000000000000000000000081526004018080602001828103825260198152602001807f566f7573206e276574657320706173206175746f726973652e0000000000000081525060200191505060405180910390fd5b6001600960008373ffffffffffffffffffffffffffffffffffffffff1673ffffffffffffffffffffffffffffffffffffffff16815260200190815260200160002060006101000a81548160ff02191690831515021790555050565b60006008805490508210610503576040517f08c379a00000000000000000000000000000000000000000000000000000000081526004018080602001828103825260128152602001807f43616e646964617420696e76616c6964652e000000000000000000000000000081525060200191505060405180910390fd5b6008828154811061051057fe5b9060005260206000209060020201600101549050919050565b6000808211801561053a5750603b82105b6105ac576040517f08c379a00000000000000000000000000000000000000000000000000000000081526004018080602001828103825260108152602001807f57696c61796120696e76616c6964652e0000000000000000000000000000000081525060200191505060405180910390fd5b600182815481106105b957fe5b90600052602060002001549050919050565b6000600760008373ffffffffffffffffffffffffffffffffffffffff1673ffffffffffffffffffffffffffffffffffffffff16815260200190815260200160002060009054906101000a900460ff169050919050565b600960003373ffffffffffffffffffffffffffffffffffffffff1673ffffffffffffffffffffffffffffffffffffffff16815260200190815260200160002060009054906101000a900460ff166106c3576040517f08c379a0000000000000000000000000000000000000000000000000000000008152600401808060200182810382526021815260200180610d4c6021913960400191505060405180910390fd5b600760003373ffffffffffffffffffffffffffffffffffffffff1673ffffffffffffffffffffffffffffffffffffffff16815260200190815260200160002060009054906101000a900460ff1615610783576040517f08c379a00000000000000000000000000000000000000000000000000000000081526004018080602001828103825260148152602001807f566f7573206176657a2064656a6120766f74652e00000000000000000000000081525060200191505060405180910390fd5b60088054905084106107fd576040517f08c379a00000000000000000000000000000000000000000000000000000000081526004018080602001828103825260128152602001807f43616e646964617420696e76616c6964652e000000000000000000000000000081525060200191505060405180910390fd5b60405160200180807f4d00000000000000000000000000000000000000000000000000000000000000815250600101905060405160208183030381529060405280519060200120836040516020018082805190602001908083835b6020831061087b5780518252602082019150602081019050602083039250610858565b6001836020036101000a038019825116818451168082178552505050505050905001915050604051602081830303815290604052805190602001201480610978575060405160200180807f4600000000000000000000000000000000000000000000000000000000000000815250600101905060405160208183030381529060405280519060200120836040516020018082805190602001908083835b6020831061093b5780518252602082019150602081019050602083039250610918565b6001836020036101000a03801982511681845116808217855250505050505090500191505060405160208183030381529060405280519060200120145b6109ea576040517f08c379a000000000000000000000000000000000000000000000000000000000815260040180806020018281038252600f8152602001807f67656e726520696e76616c6964652e000000000000000000000000000000000081525060200191505060405180910390fd5b6000821180156109fa5750603b82105b610a6c576040517f08c379a00000000000000000000000000000000000000000000000000000000081526004018080602001828103825260108152602001807f77696c61796120696e76616c6964652e0000000000000000000000000000000081525060200191505060405180910390fd5b60118111610ae2576040517f08c379a000000000000000000000000000000000000000000000000000000000815260040180806020018281038252600d8152602001807f61676520696e76616c6964652e0000000000000000000000000000000000000081525060200191505060405180910390fd5b6001600760003373ffffffffffffffffffffffffffffffffffffffff1673ffffffffffffffffffffffffffffffffffffffff16815260200190815260200160002060006101000a81548160ff02191690831515021790555060088481548110610b4757fe5b906000526020600020906002020160010160008154809291906001019190505550600080815480929190600101919050555060405160200180807f4d00000000000000000000000000000000000000000000000000000000000000815250600101905060405160208183030381529060405280519060200120836040516020018082805190602001908083835b60208310610bf75780518252602082019150602081019050602083039250610bd4565b6001836020036101000a038019825116818451168082178552505050505050905001915050604051602081830303815290604052805190602001201415610c4f57600260008154809291906001019190505550610c62565b6003600081548092919060010191905055505b60018281548110610c6f57fe5b9060005260206000200160008154809291906001019190505550601f811015610ca957600460008154809291906001019190505550610cdd565b6033811015610cc957600560008154809291906001019190505550610cdc565b6006600081548092919060010191905055505b5b7f153a9c4eefc8a9e0c657da854fcd9db9f342fbe394b4016529530c6344c7e396846040518082815260200191505060405180910390a150505050565b6000600354905090565b60008054905090565b6000600454905090565b6000600254905090565b600060065490509056fe566f7573206e276574657320706173206175746f72697365206120766f7465722ea265627a7a72315820a7ee4edab9847224c5820f5b96293d244775b88e7989693f72d87f42fd27451e64736f6c63430005100032",
  "source": "pragma solidity ^0.5.16;\r\n\r\ncontract Voting {\r\n\r\n    uint private totalVote;\r\n\r\n    // Structure pour représenter un candidat\r\n    struct Candidate {\r\n        string name;\r\n        uint voteCount;\r\n    }\r\n\r\n    uint[] private wilayaCount;\r\n    uint private M;\r\n    uint private F;\r\n    uint private jeun;\r\n    uint private agee;\r\n    uint private vieux;\r\n\r\n\r\n    // Mapping des adresses des électeurs aux candidats choisis\r\n    mapping(address => bool) private voters;\r\n\r\n    // Liste des candidats\r\n    Candidate[] private candidates;\r\n\r\n    // Adresses autorisées à appeler la fonction vote()\r\n    mapping(address => bool) private allowedVoters;\r\n\r\n    // Adresse de l'administrateur\r\n    address private admin;\r\n\r\n    // Modificateur pour restreindre l'accès aux fonctions aux comptes autorisés\r\n    modifier onlyAdmin() {\r\n        require(msg.sender == admin, \"Vous n'etes pas autorise.\");\r\n        _;\r\n    }\r\n\r\n    // Modificateur pour restreindre l'accès à la fonction vote() aux personnes autorisées\r\n    modifier onlyAllowedVoters() {\r\n        require(allowedVoters[msg.sender], \"Vous n'etes pas autorise a voter.\");\r\n        _;\r\n    }\r\n\r\n    // Événement déclenché lorsqu'un vote est enregistré\r\n    event VoteRecorded(uint candidateId);\r\n\r\n    // Constructeur pour ajouter des candidats au début\r\n    constructor() public {\r\n        admin = msg.sender; // L'adresse du déploiement est définie comme administrateur\r\n        addCandidate(\"Candidat A\");\r\n        addCandidate(\"Candidat B\");\r\n        addCandidate(\"Candidat C\");\r\n        addCandidate(\"Candidat D\");\r\n        // Ajoutez plus de candidats au besoin\r\n\r\n        // Initialisation de wilayaCount avec 58 zéros\r\n        for (uint i = 1; i < 59; i++) {\r\n            wilayaCount.push(0);\r\n        }\r\n    }\r\n\r\n    // Fonction interne pour ajouter un candidat à la liste\r\n    function addCandidate(string memory _name) private {\r\n        candidates.push(Candidate(_name, 0));\r\n    }\r\n\r\n    // Fonction pour voter pour un candidat spécifique\r\n    function vote(uint _candidateId, string memory _genre, uint _wilaya, uint _age) public onlyAllowedVoters {\r\n        // Vérifie si l'électeur n'a pas encore voté\r\n        require(!voters[msg.sender], \"Vous avez deja vote.\");\r\n\r\n        // Vérifie si l'id du candidat est valide\r\n        require(_candidateId < candidates.length, \"Candidat invalide.\");\r\n        require(keccak256(abi.encodePacked(_genre)) == keccak256(abi.encodePacked(\"M\")) || keccak256(abi.encodePacked(_genre)) == keccak256(abi.encodePacked(\"F\")), \"genre invalide.\");\r\n        require(_wilaya>0&&_wilaya<59, \"wilaya invalide.\");\r\n        require(_age > 17, \"age invalide.\");\r\n\r\n        // Enregistre le vote et marque l'électeur comme ayant voté\r\n        voters[msg.sender] = true;\r\n        candidates[_candidateId].voteCount++;\r\n        totalVote++;\r\n\r\n        if (keccak256(abi.encodePacked(_genre)) == keccak256(abi.encodePacked(\"M\"))) {\r\n            M++;\r\n        } else {\r\n            F++;\r\n        }\r\n        wilayaCount[_wilaya]++;\r\n        if (_age <31) {\r\n            jeun++;\r\n        } else {\r\n            if (_age<51) {\r\n                agee++;\r\n            } else {\r\n                vieux++;\r\n            }\r\n        }\r\n\r\n        // Déclenche l'événement de vote enregistré\r\n        emit VoteRecorded(_candidateId);\r\n    }\r\n\r\n    // Fonction pour ajouter une personne autorisée à voter\r\n    function allowVoter(address _voter) public onlyAdmin {\r\n        allowedVoters[_voter] = true;\r\n    }\r\n\r\n    // Fonction pour récupérer les détails d'un candidat spécifique en fonction de l'ID\r\n    function getCandidateDetails(uint _candidateId) public view returns (uint) {\r\n        require(_candidateId < candidates.length, \"Candidat invalide.\");\r\n        return (candidates[_candidateId].voteCount);\r\n    }\r\n    // Fonction pour récupérer le total des votes\r\n    function getTotalVote() public view returns (uint) {\r\n        return totalVote;\r\n    }\r\n\r\n    // Fonction pour récupérer le nombre de votes masculins\r\n    function getMaleVotes() public view returns (uint) {\r\n        return M;\r\n    }\r\n\r\n    // Fonction pour récupérer le nombre de votes féminins\r\n    function getFemaleVotes() public view returns (uint) {\r\n        return F;\r\n    }\r\n\r\n    // Fonction pour récupérer le nombre de votes par wilaya\r\n    function getWilayaVotes(uint _wilaya) public view returns (uint) {\r\n        require(_wilaya > 0 && _wilaya < 59, \"Wilaya invalide.\");\r\n        return wilayaCount[_wilaya];\r\n    }\r\n\r\n    // Fonction pour récupérer le nombre de votes pour les jeunes (moins de 31 ans)\r\n    function getYouthVotes() public view returns (uint) {\r\n        return jeun;\r\n    }\r\n\r\n    // Fonction pour récupérer le nombre de votes pour les personnes d'âge moyen (de 31 à 50 ans)\r\n    function getMiddleAgeVotes() public view returns (uint) {\r\n        return agee;\r\n    }\r\n\r\n    // Fonction pour récupérer le nombre de votes pour les personnes âgées (plus de 50 ans)\r\n    function getElderlyVotes() public view returns (uint) {\r\n        return vieux;\r\n    }\r\n\r\n    // Fonction pour récupérer l'etat du voter\r\n    function getVoterState(address _sender) public view returns (bool) {\r\n        return voters[_sender];\r\n    }\r\n\r\n}\r\n",
  "sourcePath": "C:\\Users\\Maison\\Documents\\GitHub\\PFE-L3\\blockchain\\contracts\\Voting.sol",
  "compiler": {
    "name": "solc",
    "version": "0.5.16+commit.9c3226ce.Emscripten.clang"
  },
  "schemaVersion": "3.4.16",
  "updatedAt": "2024-06-02T19:11:28.183Z",
  "networkType": "ethereum",
  "devdoc": {
    "methods": {}
  },
  "userdoc": {
    "methods": {}
  }
}